{
  "_format": "hh-sol-artifact-1",
  "contractName": "Token",
  "sourceName": "contracts/Token.sol",
  "abi": [
    {
      "anonymous": false,
      "inputs": [
        {
          "indexed": false,
          "internalType": "uint256",
          "name": "id",
          "type": "uint256"
        },
        {
          "indexed": false,
          "internalType": "string",
          "name": "userName",
          "type": "string"
        },
        {
          "indexed": false,
          "internalType": "uint256",
          "name": "employeeToken",
          "type": "uint256"
        }
      ],
      "name": "RegisterEmployee",
      "type": "event"
    },
    {
      "anonymous": false,
      "inputs": [
        {
          "indexed": false,
          "internalType": "uint256",
          "name": "id",
          "type": "uint256"
        },
        {
          "indexed": false,
          "internalType": "string",
          "name": "companyName",
          "type": "string"
        }
      ],
      "name": "UpdateCompanyName",
      "type": "event"
    },
    {
      "inputs": [
        {
          "internalType": "string",
          "name": "_name",
          "type": "string"
        }
      ],
      "name": "_createCompany",
      "outputs": [],
      "stateMutability": "nonpayable",
      "type": "function"
    },
    {
      "inputs": [
        {
          "internalType": "string",
          "name": "_name",
          "type": "string"
        }
      ],
      "name": "_createEmployee",
      "outputs": [],
      "stateMutability": "nonpayable",
      "type": "function"
    },
    {
      "inputs": [],
      "name": "_getAllCompanyInfo",
      "outputs": [
        {
          "components": [
            {
              "internalType": "address",
              "name": "companyAddress",
              "type": "address"
            },
            {
              "internalType": "string",
              "name": "companyName",
              "type": "string"
            },
            {
              "internalType": "uint256",
              "name": "companyToken",
              "type": "uint256"
            },
            {
              "internalType": "uint256",
              "name": "employeeCount",
              "type": "uint256"
            }
          ],
          "internalType": "struct Token.Company[]",
          "name": "",
          "type": "tuple[]"
        }
      ],
      "stateMutability": "view",
      "type": "function"
    },
    {
      "inputs": [],
      "name": "_getAllThings",
      "outputs": [
        {
          "components": [
            {
              "internalType": "address",
              "name": "companyAddress",
              "type": "address"
            },
            {
              "internalType": "string",
              "name": "companyName",
              "type": "string"
            },
            {
              "internalType": "uint256",
              "name": "companyToken",
              "type": "uint256"
            },
            {
              "internalType": "uint256",
              "name": "employeeCount",
              "type": "uint256"
            }
          ],
          "internalType": "struct Token.Company[]",
          "name": "",
          "type": "tuple[]"
        },
        {
          "components": [
            {
              "internalType": "address",
              "name": "employeeAddress",
              "type": "address"
            },
            {
              "internalType": "string",
              "name": "employeeName",
              "type": "string"
            },
            {
              "internalType": "uint256",
              "name": "employeeToken",
              "type": "uint256"
            },
            {
              "internalType": "string",
              "name": "companyName",
              "type": "string"
            }
          ],
          "internalType": "struct Token.Employee[]",
          "name": "",
          "type": "tuple[]"
        }
      ],
      "stateMutability": "view",
      "type": "function"
    },
    {
      "inputs": [],
      "name": "_getCompanyName",
      "outputs": [
        {
          "internalType": "string",
          "name": "",
          "type": "string"
        }
      ],
      "stateMutability": "view",
      "type": "function"
    },
    {
      "inputs": [],
      "name": "_getCompanyToken",
      "outputs": [
        {
          "internalType": "uint256",
          "name": "",
          "type": "uint256"
        },
        {
          "internalType": "address",
          "name": "",
          "type": "address"
        }
      ],
      "stateMutability": "view",
      "type": "function"
    },
    {
      "inputs": [],
      "name": "_getEmployeeInfo",
      "outputs": [
        {
          "internalType": "string",
          "name": "",
          "type": "string"
        },
        {
          "internalType": "uint256",
          "name": "",
          "type": "uint256"
        },
        {
          "internalType": "string",
          "name": "",
          "type": "string"
        }
      ],
      "stateMutability": "view",
      "type": "function"
    },
    {
      "inputs": [
        {
          "internalType": "uint256",
          "name": "_companyId",
          "type": "uint256"
        }
      ],
      "name": "_setEmployeeJoinCompany",
      "outputs": [],
      "stateMutability": "nonpayable",
      "type": "function"
    },
    {
      "inputs": [
        {
          "internalType": "uint256",
          "name": "_companyId",
          "type": "uint256"
        },
        {
          "internalType": "uint256",
          "name": "_zanToken",
          "type": "uint256"
        }
      ],
      "name": "_setEmployeeLeaveCompany",
      "outputs": [],
      "stateMutability": "nonpayable",
      "type": "function"
    },
    {
      "inputs": [
        {
          "internalType": "uint256",
          "name": "",
          "type": "uint256"
        }
      ],
      "name": "companies",
      "outputs": [
        {
          "internalType": "address",
          "name": "companyAddress",
          "type": "address"
        },
        {
          "internalType": "string",
          "name": "companyName",
          "type": "string"
        },
        {
          "internalType": "uint256",
          "name": "companyToken",
          "type": "uint256"
        },
        {
          "internalType": "uint256",
          "name": "employeeCount",
          "type": "uint256"
        }
      ],
      "stateMutability": "view",
      "type": "function"
    },
    {
      "inputs": [
        {
          "internalType": "address",
          "name": "",
          "type": "address"
        }
      ],
      "name": "companyExist",
      "outputs": [
        {
          "internalType": "bool",
          "name": "",
          "type": "bool"
        }
      ],
      "stateMutability": "view",
      "type": "function"
    },
    {
      "inputs": [
        {
          "internalType": "string",
          "name": "",
          "type": "string"
        }
      ],
      "name": "companyNameId",
      "outputs": [
        {
          "internalType": "uint256",
          "name": "",
          "type": "uint256"
        }
      ],
      "stateMutability": "view",
      "type": "function"
    },
    {
      "inputs": [
        {
          "internalType": "uint256",
          "name": "",
          "type": "uint256"
        }
      ],
      "name": "companyOwner",
      "outputs": [
        {
          "internalType": "address",
          "name": "",
          "type": "address"
        }
      ],
      "stateMutability": "view",
      "type": "function"
    },
    {
      "inputs": [
        {
          "internalType": "address",
          "name": "",
          "type": "address"
        }
      ],
      "name": "employeeCompanyExist",
      "outputs": [
        {
          "internalType": "bool",
          "name": "",
          "type": "bool"
        }
      ],
      "stateMutability": "view",
      "type": "function"
    },
    {
      "inputs": [
        {
          "internalType": "address",
          "name": "",
          "type": "address"
        }
      ],
      "name": "employeeCompanyId",
      "outputs": [
        {
          "internalType": "uint256",
          "name": "",
          "type": "uint256"
        }
      ],
      "stateMutability": "view",
      "type": "function"
    },
    {
      "inputs": [
        {
          "internalType": "address",
          "name": "",
          "type": "address"
        }
      ],
      "name": "employeeExist",
      "outputs": [
        {
          "internalType": "bool",
          "name": "",
          "type": "bool"
        }
      ],
      "stateMutability": "view",
      "type": "function"
    },
    {
      "inputs": [
        {
          "internalType": "address",
          "name": "",
          "type": "address"
        }
      ],
      "name": "employeeId",
      "outputs": [
        {
          "internalType": "uint256",
          "name": "",
          "type": "uint256"
        }
      ],
      "stateMutability": "view",
      "type": "function"
    },
    {
      "inputs": [
        {
          "internalType": "uint256",
          "name": "",
          "type": "uint256"
        }
      ],
      "name": "employees",
      "outputs": [
        {
          "internalType": "address",
          "name": "employeeAddress",
          "type": "address"
        },
        {
          "internalType": "string",
          "name": "employeeName",
          "type": "string"
        },
        {
          "internalType": "uint256",
          "name": "employeeToken",
          "type": "uint256"
        },
        {
          "internalType": "string",
          "name": "companyName",
          "type": "string"
        }
      ],
      "stateMutability": "view",
      "type": "function"
    },
    {
      "inputs": [],
      "name": "name",
      "outputs": [
        {
          "internalType": "string",
          "name": "",
          "type": "string"
        }
      ],
      "stateMutability": "view",
      "type": "function"
    },
    {
      "inputs": [
        {
          "internalType": "address",
          "name": "",
          "type": "address"
        }
      ],
      "name": "ownerCompanyId",
      "outputs": [
        {
          "internalType": "uint256",
          "name": "",
          "type": "uint256"
        }
      ],
      "stateMutability": "view",
      "type": "function"
    },
    {
      "inputs": [],
      "name": "symbol",
      "outputs": [
        {
          "internalType": "string",
          "name": "",
          "type": "string"
        }
      ],
      "stateMutability": "view",
      "type": "function"
    }
  ],
  "bytecode": "0x60806040526040518060400160405280601281526020017f53757368692043617265657220546f6b656e0000000000000000000000000000815250600090816200004a919062000320565b506040518060400160405280600381526020017f53534800000000000000000000000000000000000000000000000000000000008152506001908162000091919062000320565b503480156200009f57600080fd5b5062000407565b600081519050919050565b7f4e487b7100000000000000000000000000000000000000000000000000000000600052604160045260246000fd5b7f4e487b7100000000000000000000000000000000000000000000000000000000600052602260045260246000fd5b600060028204905060018216806200012857607f821691505b6020821081036200013e576200013d620000e0565b5b50919050565b60008190508160005260206000209050919050565b60006020601f8301049050919050565b600082821b905092915050565b600060088302620001a87fffffffffffffffffffffffffffffffffffffffffffffffffffffffffffffffff8262000169565b620001b4868362000169565b95508019841693508086168417925050509392505050565b6000819050919050565b6000819050919050565b600062000201620001fb620001f584620001cc565b620001d6565b620001cc565b9050919050565b6000819050919050565b6200021d83620001e0565b620002356200022c8262000208565b84845462000176565b825550505050565b600090565b6200024c6200023d565b6200025981848462000212565b505050565b5b8181101562000281576200027560008262000242565b6001810190506200025f565b5050565b601f821115620002d0576200029a8162000144565b620002a58462000159565b81016020851015620002b5578190505b620002cd620002c48562000159565b8301826200025e565b50505b505050565b600082821c905092915050565b6000620002f560001984600802620002d5565b1980831691505092915050565b6000620003108383620002e2565b9150826002028217905092915050565b6200032b82620000a6565b67ffffffffffffffff811115620003475762000346620000b1565b5b6200035382546200010f565b6200036082828562000285565b600060209050601f83116001811462000398576000841562000383578287015190505b6200038f858262000302565b865550620003ff565b601f198416620003a88662000144565b60005b82811015620003d257848901518255600182019150602085019450602081019050620003ab565b86831015620003f25784890151620003ee601f891682620002e2565b8355505b6001600288020188555050505b505050505050565b6132a980620004176000396000f3fe608060405234801561001057600080fd5b50600436106101375760003560e01c806395d89b41116100b8578063cb195e141161007c578063cb195e141461037f578063cd950db9146103af578063e55295aa146103cd578063e9d32771146103e9578063e9e9fd7914610408578063f5c1d7f21461043857610137565b806395d89b41146102c9578063965beb1f146102e757806396e6b0be14610317578063a403482014610333578063c633898d1461034f57610137565b80634c2ba445116100ff5780634c2ba4451461020f5780634ed30bc01461023f5780636e45db671461025b578063760a4ee4146102795780637d8adeb0146102a957610137565b806306fdde031461013c5780631a50ddf41461015a5780631d6503151461018a5780632813d19d146101a95780634739326b146101dc575b600080fd5b610144610468565b60405161015191906121d8565b60405180910390f35b610174600480360381019061016f9190612343565b6104f6565b60405161018191906123a5565b60405180910390f35b610192610524565b6040516101a0929190612401565b60405180910390f35b6101c360048036038101906101be9190612456565b61062e565b6040516101d39493929190612483565b60405180910390f35b6101f660048036038101906101f19190612456565b610716565b60405161020694939291906124cf565b60405180910390f35b6102296004803603810190610224919061254e565b610886565b6040516102369190612596565b60405180910390f35b61025960048036038101906102549190612343565b6108a6565b005b610263610b99565b604051610270919061273e565b60405180910390f35b610293600480360381019061028e919061254e565b610cf4565b6040516102a091906123a5565b60405180910390f35b6102b1610d0c565b6040516102c093929190612760565b60405180910390f35b6102d1611053565b6040516102de91906121d8565b60405180910390f35b61030160048036038101906102fc919061254e565b6110e1565b60405161030e9190612596565b60405180910390f35b610331600480360381019061032c9190612456565b611101565b005b61034d60048036038101906103489190612343565b611551565b005b6103696004803603810190610364919061254e565b61181f565b60405161037691906123a5565b60405180910390f35b6103996004803603810190610394919061254e565b611837565b6040516103a69190612596565b60405180910390f35b6103b7611857565b6040516103c491906121d8565b60405180910390f35b6103e760048036038101906103e291906127a5565b6119e4565b005b6103f1611dbc565b6040516103ff929190612911565b60405180910390f35b610422600480360381019061041d9190612456565b6120fd565b60405161042f9190612948565b60405180910390f35b610452600480360381019061044d919061254e565b612130565b60405161045f91906123a5565b60405180910390f35b6000805461047590612992565b80601f01602080910402602001604051908101604052809291908181526020018280546104a190612992565b80156104ee5780601f106104c3576101008083540402835291602001916104ee565b820191906000526020600020905b8154815290600101906020018083116104d157829003601f168201915b505050505081565b6006818051602081018201805184825260208301602085012081835280955050505050506000915090505481565b60008060011515600560003373ffffffffffffffffffffffffffffffffffffffff1673ffffffffffffffffffffffffffffffffffffffff16815260200190815260200160002060009054906101000a900460ff161515146105ba576040517f08c379a00000000000000000000000000000000000000000000000000000000081526004016105b190612a0f565b60405180910390fd5b6000600460003373ffffffffffffffffffffffffffffffffffffffff1673ffffffffffffffffffffffffffffffffffffffff1681526020019081526020016000205490506002818154811061061257610611612a2f565b5b9060005260206000209060040201600201543392509250509091565b6002818154811061063e57600080fd5b90600052602060002090600402016000915090508060000160009054906101000a900473ffffffffffffffffffffffffffffffffffffffff169080600101805461068790612992565b80601f01602080910402602001604051908101604052809291908181526020018280546106b390612992565b80156107005780601f106106d557610100808354040283529160200191610700565b820191906000526020600020905b8154815290600101906020018083116106e357829003601f168201915b5050505050908060020154908060030154905084565b6007818154811061072657600080fd5b90600052602060002090600402016000915090508060000160009054906101000a900473ffffffffffffffffffffffffffffffffffffffff169080600101805461076f90612992565b80601f016020809104026020016040519081016040528092919081815260200182805461079b90612992565b80156107e85780601f106107bd576101008083540402835291602001916107e8565b820191906000526020600020905b8154815290600101906020018083116107cb57829003601f168201915b50505050509080600201549080600301805461080390612992565b80601f016020809104026020016040519081016040528092919081815260200182805461082f90612992565b801561087c5780601f106108515761010080835404028352916020019161087c565b820191906000526020600020905b81548152906001019060200180831161085f57829003601f168201915b5050505050905084565b60096020528060005260406000206000915054906101000a900460ff1681565b60001515600960003373ffffffffffffffffffffffffffffffffffffffff1673ffffffffffffffffffffffffffffffffffffffff16815260200190815260200160002060009054906101000a900460ff16151514610939576040517f08c379a000000000000000000000000000000000000000000000000000000000815260040161093090612aaa565b60405180910390fd5b600760405180608001604052803373ffffffffffffffffffffffffffffffffffffffff1681526020018381526020016103e8815260200160405180602001604052806000815250815250908060018154018082558091505060019003906000526020600020906004020160009091909190915060008201518160000160006101000a81548173ffffffffffffffffffffffffffffffffffffffff021916908373ffffffffffffffffffffffffffffffffffffffff1602179055506020820151816001019081610a089190612c76565b50604082015181600201556060820151816003019081610a289190612c76565b50505060006001600780549050610a3f9190612d77565b905080600860003373ffffffffffffffffffffffffffffffffffffffff1673ffffffffffffffffffffffffffffffffffffffff168152602001908152602001600020819055506001600960003373ffffffffffffffffffffffffffffffffffffffff1673ffffffffffffffffffffffffffffffffffffffff16815260200190815260200160002060006101000a81548160ff0219169083151502179055506000600a60003373ffffffffffffffffffffffffffffffffffffffff1673ffffffffffffffffffffffffffffffffffffffff16815260200190815260200160002060006101000a81548160ff0219169083151502179055507f311ee1f77e30b0d849e267abf3b4ee64b1b9773cd397d97b9241e00fa90f66cc818360078481548110610b6c57610b6b612a2f565b5b906000526020600020906004020160020154604051610b8d93929190612dab565b60405180910390a15050565b60606002805480602002602001604051908101604052809291908181526020016000905b82821015610ceb57838290600052602060002090600402016040518060800160405290816000820160009054906101000a900473ffffffffffffffffffffffffffffffffffffffff1673ffffffffffffffffffffffffffffffffffffffff1673ffffffffffffffffffffffffffffffffffffffff168152602001600182018054610c4690612992565b80601f0160208091040260200160405190810160405280929190818152602001828054610c7290612992565b8015610cbf5780601f10610c9457610100808354040283529160200191610cbf565b820191906000526020600020905b815481529060010190602001808311610ca257829003601f168201915b505050505081526020016002820154815260200160038201548152505081526020019060010190610bbd565b50505050905090565b60046020528060005260406000206000915090505481565b60606000606060011515600960003373ffffffffffffffffffffffffffffffffffffffff1673ffffffffffffffffffffffffffffffffffffffff16815260200190815260200160002060009054906101000a900460ff1615151433604051602001610d779190612e88565b60405160208183030381529060405290610dc7576040517f08c379a0000000000000000000000000000000000000000000000000000000008152600401610dbe91906121d8565b60405180910390fd5b506000600860003373ffffffffffffffffffffffffffffffffffffffff1673ffffffffffffffffffffffffffffffffffffffff168152602001908152602001600020549050600060405180602001604052806000815250905060001515600a60003373ffffffffffffffffffffffffffffffffffffffff1673ffffffffffffffffffffffffffffffffffffffff16815260200190815260200160002060009054906101000a900460ff16151514610f6e576000600b60003373ffffffffffffffffffffffffffffffffffffffff1673ffffffffffffffffffffffffffffffffffffffff16815260200190815260200160002054905060028181548110610ed057610ecf612a2f565b5b90600052602060002090600402016001018054610eec90612992565b80601f0160208091040260200160405190810160405280929190818152602001828054610f1890612992565b8015610f655780601f10610f3a57610100808354040283529160200191610f65565b820191906000526020600020905b815481529060010190602001808311610f4857829003601f168201915b50505050509150505b60078281548110610f8257610f81612a2f565b5b906000526020600020906004020160010160078381548110610fa757610fa6612a2f565b5b90600052602060002090600402016002015482828054610fc690612992565b80601f0160208091040260200160405190810160405280929190818152602001828054610ff290612992565b801561103f5780601f106110145761010080835404028352916020019161103f565b820191906000526020600020905b81548152906001019060200180831161102257829003601f168201915b505050505092509450945094505050909192565b6001805461106090612992565b80601f016020809104026020016040519081016040528092919081815260200182805461108c90612992565b80156110d95780601f106110ae576101008083540402835291602001916110d9565b820191906000526020600020905b8154815290600101906020018083116110bc57829003601f168201915b505050505081565b60056020528060005260406000206000915054906101000a900460ff1681565b60001515600a60003373ffffffffffffffffffffffffffffffffffffffff1673ffffffffffffffffffffffffffffffffffffffff16815260200190815260200160002060009054906101000a900460ff16151514611194576040517f08c379a000000000000000000000000000000000000000000000000000000000815260040161118b90612efa565b60405180910390fd5b80600b60003373ffffffffffffffffffffffffffffffffffffffff1673ffffffffffffffffffffffffffffffffffffffff168152602001908152602001600020819055506001600a60003373ffffffffffffffffffffffffffffffffffffffff1673ffffffffffffffffffffffffffffffffffffffff16815260200190815260200160002060006101000a81548160ff02191690831515021790555060016002828154811061124657611245612a2f565b5b906000526020600020906004020160030160008282546112669190612f1a565b925050819055506007600860003373ffffffffffffffffffffffffffffffffffffffff1673ffffffffffffffffffffffffffffffffffffffff16815260200190815260200160002054815481106112c0576112bf612a2f565b5b906000526020600020906004020160020154600282815481106112e6576112e5612a2f565b5b906000526020600020906004020160020160008282546113069190612f1a565b9250508190555060006007600860003373ffffffffffffffffffffffffffffffffffffffff1673ffffffffffffffffffffffffffffffffffffffff168152602001908152602001600020548154811061136257611361612a2f565b5b9060005260206000209060040201600201819055506002818154811061138b5761138a612a2f565b5b90600052602060002090600402016001016007600860003373ffffffffffffffffffffffffffffffffffffffff1673ffffffffffffffffffffffffffffffffffffffff16815260200190815260200160002054815481106113ef576113ee612a2f565b5b9060005260206000209060040201600301908161140c9190612f79565b507f311ee1f77e30b0d849e267abf3b4ee64b1b9773cd397d97b9241e00fa90f66cc600860003373ffffffffffffffffffffffffffffffffffffffff1673ffffffffffffffffffffffffffffffffffffffff168152602001908152602001600020546007600860003373ffffffffffffffffffffffffffffffffffffffff1673ffffffffffffffffffffffffffffffffffffffff16815260200190815260200160002054815481106114c1576114c0612a2f565b5b90600052602060002090600402016001016007600860003373ffffffffffffffffffffffffffffffffffffffff1673ffffffffffffffffffffffffffffffffffffffff168152602001908152602001600020548154811061152557611524612a2f565b5b906000526020600020906004020160020154604051611546939291906130e5565b60405180910390a150565b60001515600560003373ffffffffffffffffffffffffffffffffffffffff1673ffffffffffffffffffffffffffffffffffffffff16815260200190815260200160002060009054906101000a900460ff161515146115e4576040517f08c379a00000000000000000000000000000000000000000000000000000000081526004016115db9061316f565b60405180910390fd5b600260405180608001604052803373ffffffffffffffffffffffffffffffffffffffff168152602001838152602001600081526020016000815250908060018154018082558091505060019003906000526020600020906004020160009091909190915060008201518160000160006101000a81548173ffffffffffffffffffffffffffffffffffffffff021916908373ffffffffffffffffffffffffffffffffffffffff16021790555060208201518160010190816116a49190612c76565b5060408201518160020155606082015181600301555050600060016002805490506116cf9190612d77565b9050336003600083815260200190815260200160002060006101000a81548173ffffffffffffffffffffffffffffffffffffffff021916908373ffffffffffffffffffffffffffffffffffffffff16021790555080600460003373ffffffffffffffffffffffffffffffffffffffff1673ffffffffffffffffffffffffffffffffffffffff168152602001908152602001600020819055508060068360405161177891906131c0565b9081526020016040518091039020819055506001600560003373ffffffffffffffffffffffffffffffffffffffff1673ffffffffffffffffffffffffffffffffffffffff16815260200190815260200160002060006101000a81548160ff0219169083151502179055507f25f851bd59e6102e90bef7b3589944551d6cc57754874a8bb8e9cd24ece9649281836040516118139291906131d7565b60405180910390a15050565b600b6020528060005260406000206000915090505481565b600a6020528060005260406000206000915054906101000a900460ff1681565b606060011515600560003373ffffffffffffffffffffffffffffffffffffffff1673ffffffffffffffffffffffffffffffffffffffff16815260200190815260200160002060009054906101000a900460ff161515146118ec576040517f08c379a00000000000000000000000000000000000000000000000000000000081526004016118e390612a0f565b60405180910390fd5b6000600460003373ffffffffffffffffffffffffffffffffffffffff1673ffffffffffffffffffffffffffffffffffffffff1681526020019081526020016000205490506002818154811061194457611943612a2f565b5b9060005260206000209060040201600101805461196090612992565b80601f016020809104026020016040519081016040528092919081815260200182805461198c90612992565b80156119d95780601f106119ae576101008083540402835291602001916119d9565b820191906000526020600020905b8154815290600101906020018083116119bc57829003601f168201915b505050505091505090565b60011515600a60003373ffffffffffffffffffffffffffffffffffffffff1673ffffffffffffffffffffffffffffffffffffffff16815260200190815260200160002060009054906101000a900460ff16151514611a77576040517f08c379a0000000000000000000000000000000000000000000000000000000008152600401611a6e90613253565b60405180910390fd5b6000600b60003373ffffffffffffffffffffffffffffffffffffffff1673ffffffffffffffffffffffffffffffffffffffff168152602001908152602001600020819055506000600a60003373ffffffffffffffffffffffffffffffffffffffff1673ffffffffffffffffffffffffffffffffffffffff16815260200190815260200160002060006101000a81548160ff021916908315150217905550600160028381548110611b2a57611b29612a2f565b5b90600052602060002090600402016003016000828254611b4a9190612d77565b925050819055508060028381548110611b6657611b65612a2f565b5b90600052602060002090600402016002016000828254611b869190612d77565b92505081905550806007600860003373ffffffffffffffffffffffffffffffffffffffff1673ffffffffffffffffffffffffffffffffffffffff1681526020019081526020016000205481548110611be157611be0612a2f565b5b906000526020600020906004020160020181905550604051806020016040528060008152506007600860003373ffffffffffffffffffffffffffffffffffffffff1673ffffffffffffffffffffffffffffffffffffffff1681526020019081526020016000205481548110611c5957611c58612a2f565b5b90600052602060002090600402016003019081611c769190612c76565b507f311ee1f77e30b0d849e267abf3b4ee64b1b9773cd397d97b9241e00fa90f66cc600860003373ffffffffffffffffffffffffffffffffffffffff1673ffffffffffffffffffffffffffffffffffffffff168152602001908152602001600020546007600860003373ffffffffffffffffffffffffffffffffffffffff1673ffffffffffffffffffffffffffffffffffffffff1681526020019081526020016000205481548110611d2b57611d2a612a2f565b5b90600052602060002090600402016001016007600860003373ffffffffffffffffffffffffffffffffffffffff1673ffffffffffffffffffffffffffffffffffffffff1681526020019081526020016000205481548110611d8f57611d8e612a2f565b5b906000526020600020906004020160020154604051611db0939291906130e5565b60405180910390a15050565b6060806002600781805480602002602001604051908101604052809291908181526020016000905b82821015611f1257838290600052602060002090600402016040518060800160405290816000820160009054906101000a900473ffffffffffffffffffffffffffffffffffffffff1673ffffffffffffffffffffffffffffffffffffffff1673ffffffffffffffffffffffffffffffffffffffff168152602001600182018054611e6d90612992565b80601f0160208091040260200160405190810160405280929190818152602001828054611e9990612992565b8015611ee65780601f10611ebb57610100808354040283529160200191611ee6565b820191906000526020600020905b815481529060010190602001808311611ec957829003601f168201915b505050505081526020016002820154815260200160038201548152505081526020019060010190611de4565b50505050915080805480602002602001604051908101604052809291908181526020016000905b828210156120ef57838290600052602060002090600402016040518060800160405290816000820160009054906101000a900473ffffffffffffffffffffffffffffffffffffffff1673ffffffffffffffffffffffffffffffffffffffff1673ffffffffffffffffffffffffffffffffffffffff168152602001600182018054611fc290612992565b80601f0160208091040260200160405190810160405280929190818152602001828054611fee90612992565b801561203b5780601f106120105761010080835404028352916020019161203b565b820191906000526020600020905b81548152906001019060200180831161201e57829003601f168201915b505050505081526020016002820154815260200160038201805461205e90612992565b80601f016020809104026020016040519081016040528092919081815260200182805461208a90612992565b80156120d75780601f106120ac576101008083540402835291602001916120d7565b820191906000526020600020905b8154815290600101906020018083116120ba57829003601f168201915b50505050508152505081526020019060010190611f39565b505050509050915091509091565b60036020528060005260406000206000915054906101000a900473ffffffffffffffffffffffffffffffffffffffff1681565b60086020528060005260406000206000915090505481565b600081519050919050565b600082825260208201905092915050565b60005b83811015612182578082015181840152602081019050612167565b60008484015250505050565b6000601f19601f8301169050919050565b60006121aa82612148565b6121b48185612153565b93506121c4818560208601612164565b6121cd8161218e565b840191505092915050565b600060208201905081810360008301526121f2818461219f565b905092915050565b6000604051905090565b600080fd5b600080fd5b600080fd5b600080fd5b7f4e487b7100000000000000000000000000000000000000000000000000000000600052604160045260246000fd5b6122508261218e565b810181811067ffffffffffffffff8211171561226f5761226e612218565b5b80604052505050565b60006122826121fa565b905061228e8282612247565b919050565b600067ffffffffffffffff8211156122ae576122ad612218565b5b6122b78261218e565b9050602081019050919050565b82818337600083830152505050565b60006122e66122e184612293565b612278565b90508281526020810184848401111561230257612301612213565b5b61230d8482856122c4565b509392505050565b600082601f83011261232a5761232961220e565b5b813561233a8482602086016122d3565b91505092915050565b60006020828403121561235957612358612204565b5b600082013567ffffffffffffffff81111561237757612376612209565b5b61238384828501612315565b91505092915050565b6000819050919050565b61239f8161238c565b82525050565b60006020820190506123ba6000830184612396565b92915050565b600073ffffffffffffffffffffffffffffffffffffffff82169050919050565b60006123eb826123c0565b9050919050565b6123fb816123e0565b82525050565b60006040820190506124166000830185612396565b61242360208301846123f2565b9392505050565b6124338161238c565b811461243e57600080fd5b50565b6000813590506124508161242a565b92915050565b60006020828403121561246c5761246b612204565b5b600061247a84828501612441565b91505092915050565b600060808201905061249860008301876123f2565b81810360208301526124aa818661219f565b90506124b96040830185612396565b6124c66060830184612396565b95945050505050565b60006080820190506124e460008301876123f2565b81810360208301526124f6818661219f565b90506125056040830185612396565b8181036060830152612517818461219f565b905095945050505050565b61252b816123e0565b811461253657600080fd5b50565b60008135905061254881612522565b92915050565b60006020828403121561256457612563612204565b5b600061257284828501612539565b91505092915050565b60008115159050919050565b6125908161257b565b82525050565b60006020820190506125ab6000830184612587565b92915050565b600081519050919050565b600082825260208201905092915050565b6000819050602082019050919050565b6125e6816123e0565b82525050565b600082825260208201905092915050565b600061260882612148565b61261281856125ec565b9350612622818560208601612164565b61262b8161218e565b840191505092915050565b61263f8161238c565b82525050565b600060808301600083015161265d60008601826125dd565b506020830151848203602086015261267582826125fd565b915050604083015161268a6040860182612636565b50606083015161269d6060860182612636565b508091505092915050565b60006126b48383612645565b905092915050565b6000602082019050919050565b60006126d4826125b1565b6126de81856125bc565b9350836020820285016126f0856125cd565b8060005b8581101561272c578484038952815161270d85826126a8565b9450612718836126bc565b925060208a019950506001810190506126f4565b50829750879550505050505092915050565b6000602082019050818103600083015261275881846126c9565b905092915050565b6000606082019050818103600083015261277a818661219f565b90506127896020830185612396565b818103604083015261279b818461219f565b9050949350505050565b600080604083850312156127bc576127bb612204565b5b60006127ca85828601612441565b92505060206127db85828601612441565b9150509250929050565b600081519050919050565b600082825260208201905092915050565b6000819050602082019050919050565b600060808301600083015161282960008601826125dd565b506020830151848203602086015261284182826125fd565b91505060408301516128566040860182612636565b506060830151848203606086015261286e82826125fd565b9150508091505092915050565b60006128878383612811565b905092915050565b6000602082019050919050565b60006128a7826127e5565b6128b181856127f0565b9350836020820285016128c385612801565b8060005b858110156128ff57848403895281516128e0858261287b565b94506128eb8361288f565b925060208a019950506001810190506128c7565b50829750879550505050505092915050565b6000604082019050818103600083015261292b81856126c9565b9050818103602083015261293f818461289c565b90509392505050565b600060208201905061295d60008301846123f2565b92915050565b7f4e487b7100000000000000000000000000000000000000000000000000000000600052602260045260246000fd5b600060028204905060018216806129aa57607f821691505b6020821081036129bd576129bc612963565b5b50919050565b7f436f6d70616e79206e6f74206578697374730000000000000000000000000000600082015250565b60006129f9601283612153565b9150612a04826129c3565b602082019050919050565b60006020820190508181036000830152612a28816129ec565b9050919050565b7f4e487b7100000000000000000000000000000000000000000000000000000000600052603260045260246000fd5b7f456d706c6f79656520616c726561647920657869737473000000000000000000600082015250565b6000612a94601783612153565b9150612a9f82612a5e565b602082019050919050565b60006020820190508181036000830152612ac381612a87565b9050919050565b60008190508160005260206000209050919050565b60006020601f8301049050919050565b600082821b905092915050565b600060088302612b2c7fffffffffffffffffffffffffffffffffffffffffffffffffffffffffffffffff82612aef565b612b368683612aef565b95508019841693508086168417925050509392505050565b6000819050919050565b6000612b73612b6e612b698461238c565b612b4e565b61238c565b9050919050565b6000819050919050565b612b8d83612b58565b612ba1612b9982612b7a565b848454612afc565b825550505050565b600090565b612bb6612ba9565b612bc1818484612b84565b505050565b5b81811015612be557612bda600082612bae565b600181019050612bc7565b5050565b601f821115612c2a57612bfb81612aca565b612c0484612adf565b81016020851015612c13578190505b612c27612c1f85612adf565b830182612bc6565b50505b505050565b600082821c905092915050565b6000612c4d60001984600802612c2f565b1980831691505092915050565b6000612c668383612c3c565b9150826002028217905092915050565b612c7f82612148565b67ffffffffffffffff811115612c9857612c97612218565b5b612ca28254612992565b612cad828285612be9565b600060209050601f831160018114612ce05760008415612cce578287015190505b612cd88582612c5a565b865550612d40565b601f198416612cee86612aca565b60005b82811015612d1657848901518255600182019150602085019450602081019050612cf1565b86831015612d335784890151612d2f601f891682612c3c565b8355505b6001600288020188555050505b505050505050565b7f4e487b7100000000000000000000000000000000000000000000000000000000600052601160045260246000fd5b6000612d828261238c565b9150612d8d8361238c565b9250828203905081811115612da557612da4612d48565b5b92915050565b6000606082019050612dc06000830186612396565b8181036020830152612dd2818561219f565b9050612de16040830184612396565b949350505050565b600081905092915050565b7f456d706c6f796565206e6f74206578697374733a200000000000000000000000600082015250565b6000612e2a601583612de9565b9150612e3582612df4565b601582019050919050565b60008160601b9050919050565b6000612e5882612e40565b9050919050565b6000612e6a82612e4d565b9050919050565b612e82612e7d826123e0565b612e5f565b82525050565b6000612e9382612e1d565b9150612e9f8284612e71565b60148201915081905092915050565b7f456d706c6f79656520616c7265616479206a6f696e20636f6d70616e79000000600082015250565b6000612ee4601d83612153565b9150612eef82612eae565b602082019050919050565b60006020820190508181036000830152612f1381612ed7565b9050919050565b6000612f258261238c565b9150612f308361238c565b9250828201905080821115612f4857612f47612d48565b5b92915050565b600081549050612f5d81612992565b9050919050565b60008190508160005260206000209050919050565b818103612f8757505061305f565b612f9082612f4e565b67ffffffffffffffff811115612fa957612fa8612218565b5b612fb38254612992565b612fbe828285612be9565b6000601f831160018114612fed5760008415612fdb578287015490505b612fe58582612c5a565b865550613058565b601f198416612ffb87612f64565b965061300686612aca565b60005b8281101561302e57848901548255600182019150600185019450602081019050613009565b8683101561304b5784890154613047601f891682612c3c565b8355505b6001600288020188555050505b5050505050505b565b6000815461306e81612992565b6130788186612153565b9450600182166000811461309357600181146130a9576130dc565b60ff1983168652811515602002860193506130dc565b6130b285612aca565b60005b838110156130d4578154818901526001820191506020810190506130b5565b808801955050505b50505092915050565b60006060820190506130fa6000830186612396565b818103602083015261310c8185613061565b905061311b6040830184612396565b949350505050565b7f436f6d70616e7920616c72656164792065786973747300000000000000000000600082015250565b6000613159601683612153565b915061316482613123565b602082019050919050565b600060208201905081810360008301526131888161314c565b9050919050565b600061319a82612148565b6131a48185612de9565b93506131b4818560208601612164565b80840191505092915050565b60006131cc828461318f565b915081905092915050565b60006040820190506131ec6000830185612396565b81810360208301526131fe818461219f565b90509392505050565b7f456d706c6f796565206e6f74206a6f696e20636f6d70616e7900000000000000600082015250565b600061323d601983612153565b915061324882613207565b602082019050919050565b6000602082019050818103600083015261326c81613230565b905091905056fea26469706673582212207c5f403649b04640066499c11e59538e3642010d7e4cb10fe4b109cf761031d564736f6c63430008110033",
  "linkReferences": {},
  "deployedLinkReferences": {}
}