{
  "_format": "hh-sol-artifact-1",
  "contractName": "Token",
  "sourceName": "contracts/Token.sol",
  "abi": [
    {
      "anonymous": false,
      "inputs": [
        {
          "indexed": false,
          "internalType": "uint256",
          "name": "id",
          "type": "uint256"
        },
        {
          "indexed": false,
          "internalType": "string",
          "name": "userName",
          "type": "string"
        },
        {
          "indexed": false,
          "internalType": "uint256",
          "name": "employeeZanToken",
          "type": "uint256"
        }
      ],
      "name": "RegisterEmployee",
      "type": "event"
    },
    {
      "inputs": [
        {
          "internalType": "string",
          "name": "_name",
          "type": "string"
        },
        {
          "internalType": "string",
          "name": "_companyName",
          "type": "string"
        },
        {
          "internalType": "string",
          "name": "_companyUrl",
          "type": "string"
        },
        {
          "internalType": "string",
          "name": "_slackId",
          "type": "string"
        }
      ],
      "name": "_createEmployee",
      "outputs": [],
      "stateMutability": "nonpayable",
      "type": "function"
    },
    {
      "inputs": [],
      "name": "_getAllThings",
      "outputs": [
        {
          "components": [
            {
              "internalType": "address",
              "name": "employeeAddress",
              "type": "address"
            },
            {
              "internalType": "string",
              "name": "employeeName",
              "type": "string"
            },
            {
              "internalType": "uint256",
              "name": "employeeZanToken",
              "type": "uint256"
            },
            {
              "internalType": "string",
              "name": "companyName",
              "type": "string"
            },
            {
              "internalType": "string",
              "name": "companyUrl",
              "type": "string"
            },
            {
              "internalType": "uint256",
              "name": "employeeSendToken",
              "type": "uint256"
            },
            {
              "internalType": "uint256",
              "name": "employeeReceiveToken",
              "type": "uint256"
            },
            {
              "internalType": "string",
              "name": "employeeSlackId",
              "type": "string"
            }
          ],
          "internalType": "struct Token.Employee[]",
          "name": "",
          "type": "tuple[]"
        }
      ],
      "stateMutability": "view",
      "type": "function"
    },
    {
      "inputs": [
        {
          "internalType": "uint256",
          "name": "_from",
          "type": "uint256"
        }
      ],
      "name": "_getEmployeeInfo",
      "outputs": [
        {
          "components": [
            {
              "internalType": "address",
              "name": "employeeAddress",
              "type": "address"
            },
            {
              "internalType": "string",
              "name": "employeeName",
              "type": "string"
            },
            {
              "internalType": "uint256",
              "name": "employeeZanToken",
              "type": "uint256"
            },
            {
              "internalType": "string",
              "name": "companyName",
              "type": "string"
            },
            {
              "internalType": "string",
              "name": "companyUrl",
              "type": "string"
            },
            {
              "internalType": "uint256",
              "name": "employeeSendToken",
              "type": "uint256"
            },
            {
              "internalType": "uint256",
              "name": "employeeReceiveToken",
              "type": "uint256"
            },
            {
              "internalType": "string",
              "name": "employeeSlackId",
              "type": "string"
            }
          ],
          "internalType": "struct Token.Employee",
          "name": "",
          "type": "tuple"
        }
      ],
      "stateMutability": "view",
      "type": "function"
    },
    {
      "inputs": [
        {
          "internalType": "uint256",
          "name": "_from",
          "type": "uint256"
        },
        {
          "internalType": "uint256",
          "name": "_to",
          "type": "uint256"
        },
        {
          "internalType": "uint256",
          "name": "_sushi",
          "type": "uint256"
        }
      ],
      "name": "_sendSushi",
      "outputs": [],
      "stateMutability": "nonpayable",
      "type": "function"
    },
    {
      "inputs": [
        {
          "internalType": "address",
          "name": "",
          "type": "address"
        }
      ],
      "name": "employeeAddressId",
      "outputs": [
        {
          "internalType": "uint256",
          "name": "",
          "type": "uint256"
        }
      ],
      "stateMutability": "view",
      "type": "function"
    },
    {
      "inputs": [
        {
          "internalType": "address",
          "name": "",
          "type": "address"
        }
      ],
      "name": "employeeExist",
      "outputs": [
        {
          "internalType": "bool",
          "name": "",
          "type": "bool"
        }
      ],
      "stateMutability": "view",
      "type": "function"
    },
    {
      "inputs": [
        {
          "internalType": "uint256",
          "name": "",
          "type": "uint256"
        }
      ],
      "name": "employeeIdAddress",
      "outputs": [
        {
          "internalType": "address",
          "name": "",
          "type": "address"
        }
      ],
      "stateMutability": "view",
      "type": "function"
    },
    {
      "inputs": [
        {
          "internalType": "string",
          "name": "",
          "type": "string"
        }
      ],
      "name": "employeeSlackId",
      "outputs": [
        {
          "internalType": "uint256",
          "name": "",
          "type": "uint256"
        }
      ],
      "stateMutability": "view",
      "type": "function"
    },
    {
      "inputs": [
        {
          "internalType": "uint256",
          "name": "",
          "type": "uint256"
        }
      ],
      "name": "employees",
      "outputs": [
        {
          "internalType": "address",
          "name": "employeeAddress",
          "type": "address"
        },
        {
          "internalType": "string",
          "name": "employeeName",
          "type": "string"
        },
        {
          "internalType": "uint256",
          "name": "employeeZanToken",
          "type": "uint256"
        },
        {
          "internalType": "string",
          "name": "companyName",
          "type": "string"
        },
        {
          "internalType": "string",
          "name": "companyUrl",
          "type": "string"
        },
        {
          "internalType": "uint256",
          "name": "employeeSendToken",
          "type": "uint256"
        },
        {
          "internalType": "uint256",
          "name": "employeeReceiveToken",
          "type": "uint256"
        },
        {
          "internalType": "string",
          "name": "employeeSlackId",
          "type": "string"
        }
      ],
      "stateMutability": "view",
      "type": "function"
    },
    {
      "inputs": [],
      "name": "getEmployeeInfoAddress",
      "outputs": [
        {
          "internalType": "uint256",
          "name": "",
          "type": "uint256"
        },
        {
          "components": [
            {
              "internalType": "address",
              "name": "employeeAddress",
              "type": "address"
            },
            {
              "internalType": "string",
              "name": "employeeName",
              "type": "string"
            },
            {
              "internalType": "uint256",
              "name": "employeeZanToken",
              "type": "uint256"
            },
            {
              "internalType": "string",
              "name": "companyName",
              "type": "string"
            },
            {
              "internalType": "string",
              "name": "companyUrl",
              "type": "string"
            },
            {
              "internalType": "uint256",
              "name": "employeeSendToken",
              "type": "uint256"
            },
            {
              "internalType": "uint256",
              "name": "employeeReceiveToken",
              "type": "uint256"
            },
            {
              "internalType": "string",
              "name": "employeeSlackId",
              "type": "string"
            }
          ],
          "internalType": "struct Token.Employee",
          "name": "",
          "type": "tuple"
        }
      ],
      "stateMutability": "view",
      "type": "function"
    },
    {
      "inputs": [
        {
          "internalType": "string",
          "name": "_slackId",
          "type": "string"
        }
      ],
      "name": "getEmployeeInfoSlack",
      "outputs": [
        {
          "internalType": "uint256",
          "name": "",
          "type": "uint256"
        },
        {
          "components": [
            {
              "internalType": "address",
              "name": "employeeAddress",
              "type": "address"
            },
            {
              "internalType": "string",
              "name": "employeeName",
              "type": "string"
            },
            {
              "internalType": "uint256",
              "name": "employeeZanToken",
              "type": "uint256"
            },
            {
              "internalType": "string",
              "name": "companyName",
              "type": "string"
            },
            {
              "internalType": "string",
              "name": "companyUrl",
              "type": "string"
            },
            {
              "internalType": "uint256",
              "name": "employeeSendToken",
              "type": "uint256"
            },
            {
              "internalType": "uint256",
              "name": "employeeReceiveToken",
              "type": "uint256"
            },
            {
              "internalType": "string",
              "name": "employeeSlackId",
              "type": "string"
            }
          ],
          "internalType": "struct Token.Employee",
          "name": "",
          "type": "tuple"
        }
      ],
      "stateMutability": "view",
      "type": "function"
    },
    {
      "inputs": [],
      "name": "name",
      "outputs": [
        {
          "internalType": "string",
          "name": "",
          "type": "string"
        }
      ],
      "stateMutability": "view",
      "type": "function"
    },
    {
      "inputs": [],
      "name": "symbol",
      "outputs": [
        {
          "internalType": "string",
          "name": "",
          "type": "string"
        }
      ],
      "stateMutability": "view",
      "type": "function"
    }
  ],
  "bytecode": "0x60c0604052601260808190527129bab9b4349021b0b932b2b9102a37b5b2b760711b60a090815262000035916000919062000077565b50604080518082019091526003808252620a6a6960eb1b6020909201918252620000629160019162000077565b503480156200007057600080fd5b506200015a565b82805462000085906200011d565b90600052602060002090601f016020900481019282620000a95760008555620000f4565b82601f10620000c457805160ff1916838001178555620000f4565b82800160010185558215620000f4579182015b82811115620000f4578251825591602001919060010190620000d7565b506200010292915062000106565b5090565b5b8082111562000102576000815560010162000107565b600181811c908216806200013257607f821691505b602082108114156200015457634e487b7160e01b600052602260045260246000fd5b50919050565b611f9c806200016a6000396000f3fe608060405234801561001057600080fd5b50600436106100cf5760003560e01c80638a880a911161008c578063bb49667711610066578063bb49667714610217578063db0e5a361461022c578063e49de6131461023f578063e9d327711461025f57600080fd5b80638a880a91146101ce57806395d89b4114610207578063a42bf5971461020f57600080fd5b806305670237146100d457806306fdde03146100fd57806314b3ac92146101125780633429c286146101335780634739326b146101745780634c2ba4451461019b575b600080fd5b6100e76100e2366004611977565b610274565b6040516100f49190611a8a565b60405180910390f35b6101056105ca565b6040516100f49190611aa4565b610125610120366004611b5a565b610658565b6040516100f4929190611b97565b61015c610141366004611977565b6005602052600090815260409020546001600160a01b031681565b6040516001600160a01b0390911681526020016100f4565b610187610182366004611977565b610a36565b6040516100f4989796959493929190611bb0565b6101be6101a9366004611c32565b60046020526000908152604090205460ff1681565b60405190151581526020016100f4565b6101f96101dc366004611b5a565b805160208183018101805160068252928201919093012091525481565b6040519081526020016100f4565b610105610cb4565b610125610cc1565b61022a610225366004611c5b565b610ff0565b005b61022a61023a366004611d08565b61127a565b6101f961024d366004611c32565b60036020526000908152604090205481565b6102676115b4565b6040516100f49190611d34565b61027c611890565b6000828152600560209081526040808320546001600160a01b03168352600482529182902054915160ff9092161515600114916102bb91339101611d96565b604051602081830303815290604052906102f15760405162461bcd60e51b81526004016102e89190611aa4565b60405180910390fd5b506000828152600560209081526040808320546001600160a01b031683526003909152902054600280548290811061032b5761032b611dd1565b600091825260209182902060408051610100810190915260089092020180546001600160a01b03168252600181018054929391929184019161036c90611de7565b80601f016020809104026020016040519081016040528092919081815260200182805461039890611de7565b80156103e55780601f106103ba576101008083540402835291602001916103e5565b820191906000526020600020905b8154815290600101906020018083116103c857829003601f168201915b505050505081526020016002820154815260200160038201805461040890611de7565b80601f016020809104026020016040519081016040528092919081815260200182805461043490611de7565b80156104815780601f1061045657610100808354040283529160200191610481565b820191906000526020600020905b81548152906001019060200180831161046457829003601f168201915b5050505050815260200160048201805461049a90611de7565b80601f01602080910402602001604051908101604052809291908181526020018280546104c690611de7565b80156105135780601f106104e857610100808354040283529160200191610513565b820191906000526020600020905b8154815290600101906020018083116104f657829003601f168201915b50505050508152602001600582015481526020016006820154815260200160078201805461054090611de7565b80601f016020809104026020016040519081016040528092919081815260200182805461056c90611de7565b80156105b95780601f1061058e576101008083540402835291602001916105b9565b820191906000526020600020905b81548152906001019060200180831161059c57829003601f168201915b505050505081525050915050919050565b600080546105d790611de7565b80601f016020809104026020016040519081016040528092919081815260200182805461060390611de7565b80156106505780601f1061062557610100808354040283529160200191610650565b820191906000526020600020905b81548152906001019060200180831161063357829003601f168201915b505050505081565b6000610662611890565b3360008181526004602090815260409182902054915160ff90921615156001149261068f92909101611d96565b604051602081830303815290604052906106bc5760405162461bcd60e51b81526004016102e89190611aa4565b5060046000600560006006876040516106d59190611e22565b90815260408051918290036020908101909220548352828201939093529082016000908120546001600160a01b031684528382019490945291810190922054915160ff90921615156001149161072d91339101611d96565b6040516020818303038152906040529061075a5760405162461bcd60e51b81526004016102e89190611aa4565b50600060068460405161076d9190611e22565b9081526020016040518091039020549050806002828154811061079257610792611dd1565b600091825260209182902060408051610100810190915260089092020180546001600160a01b031682526001810180549193849290840191906107d490611de7565b80601f016020809104026020016040519081016040528092919081815260200182805461080090611de7565b801561084d5780601f106108225761010080835404028352916020019161084d565b820191906000526020600020905b81548152906001019060200180831161083057829003601f168201915b505050505081526020016002820154815260200160038201805461087090611de7565b80601f016020809104026020016040519081016040528092919081815260200182805461089c90611de7565b80156108e95780601f106108be576101008083540402835291602001916108e9565b820191906000526020600020905b8154815290600101906020018083116108cc57829003601f168201915b5050505050815260200160048201805461090290611de7565b80601f016020809104026020016040519081016040528092919081815260200182805461092e90611de7565b801561097b5780601f106109505761010080835404028352916020019161097b565b820191906000526020600020905b81548152906001019060200180831161095e57829003601f168201915b5050505050815260200160058201548152602001600682015481526020016007820180546109a890611de7565b80601f01602080910402602001604051908101604052809291908181526020018280546109d490611de7565b8015610a215780601f106109f657610100808354040283529160200191610a21565b820191906000526020600020905b815481529060010190602001808311610a0457829003601f168201915b50505050508152505090509250925050915091565b60028181548110610a4657600080fd5b6000918252602090912060089091020180546001820180546001600160a01b03909216935090610a7590611de7565b80601f0160208091040260200160405190810160405280929190818152602001828054610aa190611de7565b8015610aee5780601f10610ac357610100808354040283529160200191610aee565b820191906000526020600020905b815481529060010190602001808311610ad157829003601f168201915b505050505090806002015490806003018054610b0990611de7565b80601f0160208091040260200160405190810160405280929190818152602001828054610b3590611de7565b8015610b825780601f10610b5757610100808354040283529160200191610b82565b820191906000526020600020905b815481529060010190602001808311610b6557829003601f168201915b505050505090806004018054610b9790611de7565b80601f0160208091040260200160405190810160405280929190818152602001828054610bc390611de7565b8015610c105780601f10610be557610100808354040283529160200191610c10565b820191906000526020600020905b815481529060010190602001808311610bf357829003601f168201915b505050505090806005015490806006015490806007018054610c3190611de7565b80601f0160208091040260200160405190810160405280929190818152602001828054610c5d90611de7565b8015610caa5780601f10610c7f57610100808354040283529160200191610caa565b820191906000526020600020905b815481529060010190602001808311610c8d57829003601f168201915b5050505050905088565b600180546105d790611de7565b6000610ccb611890565b3360008181526004602090815260409182902054915160ff909216151560011492610cf892909101611d96565b60405160208183030381529060405290610d255760405162461bcd60e51b81526004016102e89190611aa4565b50336000908152600360205260409020546002805482919082908110610d4d57610d4d611dd1565b600091825260209182902060408051610100810190915260089092020180546001600160a01b03168252600181018054919384929084019190610d8f90611de7565b80601f0160208091040260200160405190810160405280929190818152602001828054610dbb90611de7565b8015610e085780601f10610ddd57610100808354040283529160200191610e08565b820191906000526020600020905b815481529060010190602001808311610deb57829003601f168201915b5050505050815260200160028201548152602001600382018054610e2b90611de7565b80601f0160208091040260200160405190810160405280929190818152602001828054610e5790611de7565b8015610ea45780601f10610e7957610100808354040283529160200191610ea4565b820191906000526020600020905b815481529060010190602001808311610e8757829003601f168201915b50505050508152602001600482018054610ebd90611de7565b80601f0160208091040260200160405190810160405280929190818152602001828054610ee990611de7565b8015610f365780601f10610f0b57610100808354040283529160200191610f36565b820191906000526020600020905b815481529060010190602001808311610f1957829003601f168201915b505050505081526020016005820154815260200160068201548152602001600782018054610f6390611de7565b80601f0160208091040260200160405190810160405280929190818152602001828054610f8f90611de7565b8015610fdc5780601f10610fb157610100808354040283529160200191610fdc565b820191906000526020600020905b815481529060010190602001808311610fbf57829003601f168201915b505050505081525050905092509250509091565b3360009081526004602052604090205460ff16156110505760405162461bcd60e51b815260206004820152601760248201527f456d706c6f79656520616c72656164792065786973747300000000000000000060448201526064016102e8565b604080516101008101825233815260208082018781526103e8938301939093526060820186905260808201859052600060a0830181905260c0830181905260e0830185905260028054600181018255915282517f405787fa12a823e0f2b7631cc41b3ba8828b3321ca811111fa75cd3aa3bb5ace600890920291820180546001600160a01b0319166001600160a01b0390921691909117815593518051939493611123937f405787fa12a823e0f2b7631cc41b3ba8828b3321ca811111fa75cd3aa3bb5acf9093019291909101906118de565b5060408201516002820155606082015180516111499160038401916020909101906118de565b50608082015180516111659160048401916020909101906118de565b5060a0820151600582015560c0820151600682015560e082015180516111959160078401916020909101906118de565b5050600254600091506111aa90600190611e54565b3360008181526003602090815260408083208590558483526005825280832080546001600160a01b0319168517905592825260049052819020805460ff19166001179055519091508190600690611202908590611e22565b9081526020016040518091039020819055507f311ee1f77e30b0d849e267abf3b4ee64b1b9773cd397d97b9241e00fa90f66cc81866002848154811061124a5761124a611dd1565b90600052602060002090600802016002015460405161126b93929190611e6b565b60405180910390a15050505050565b6000838152600560209081526040808320546001600160a01b03168352600490915290205460ff1615156001146112e95760405162461bcd60e51b8152602060048201526013602482015272456d706c6f796565206e6f742065786973747360681b60448201526064016102e8565b6000828152600560209081526040808320546001600160a01b03168352600490915290205460ff1615156001146113585760405162461bcd60e51b8152602060048201526013602482015272456d706c6f796565206e6f742065786973747360681b60448201526064016102e8565b806002848154811061136c5761136c611dd1565b90600052602060002090600802016002015410156113bf5760405162461bcd60e51b815260206004820152601060248201526f4e6f7420656e6f75676820737573686960801b60448201526064016102e8565b80600284815481106113d3576113d3611dd1565b906000526020600020906008020160020160008282546113f39190611e54565b92505081905550806002848154811061140e5761140e611dd1565b9060005260206000209060080201600501600082825461142e9190611e94565b92505081905550806002838154811061144957611449611dd1565b906000526020600020906008020160020160008282546114699190611e94565b92505081905550806002838154811061148457611484611dd1565b906000526020600020906008020160060160008282546114a49190611e94565b925050819055507f311ee1f77e30b0d849e267abf3b4ee64b1b9773cd397d97b9241e00fa90f66cc83600285815481106114e0576114e0611dd1565b90600052602060002090600802016001016002868154811061150457611504611dd1565b90600052602060002090600802016002015460405161152593929190611eac565b60405180910390a17f311ee1f77e30b0d849e267abf3b4ee64b1b9773cd397d97b9241e00fa90f66cc826002848154811061156257611562611dd1565b90600052602060002090600802016001016002858154811061158657611586611dd1565b9060005260206000209060080201600201546040516115a793929190611eac565b60405180910390a1505050565b60606002805480602002602001604051908101604052809291908181526020016000905b828210156118875760008481526020908190206040805161010081019091526008850290910180546001600160a01b03168252600181018054929391929184019161162290611de7565b80601f016020809104026020016040519081016040528092919081815260200182805461164e90611de7565b801561169b5780601f106116705761010080835404028352916020019161169b565b820191906000526020600020905b81548152906001019060200180831161167e57829003601f168201915b50505050508152602001600282015481526020016003820180546116be90611de7565b80601f01602080910402602001604051908101604052809291908181526020018280546116ea90611de7565b80156117375780601f1061170c57610100808354040283529160200191611737565b820191906000526020600020905b81548152906001019060200180831161171a57829003601f168201915b5050505050815260200160048201805461175090611de7565b80601f016020809104026020016040519081016040528092919081815260200182805461177c90611de7565b80156117c95780601f1061179e576101008083540402835291602001916117c9565b820191906000526020600020905b8154815290600101906020018083116117ac57829003601f168201915b5050505050815260200160058201548152602001600682015481526020016007820180546117f690611de7565b80601f016020809104026020016040519081016040528092919081815260200182805461182290611de7565b801561186f5780601f106118445761010080835404028352916020019161186f565b820191906000526020600020905b81548152906001019060200180831161185257829003601f168201915b505050505081525050815260200190600101906115d8565b50505050905090565b60405180610100016040528060006001600160a01b03168152602001606081526020016000815260200160608152602001606081526020016000815260200160008152602001606081525090565b8280546118ea90611de7565b90600052602060002090601f01602090048101928261190c5760008555611952565b82601f1061192557805160ff1916838001178555611952565b82800160010185558215611952579182015b82811115611952578251825591602001919060010190611937565b5061195e929150611962565b5090565b5b8082111561195e5760008155600101611963565b60006020828403121561198957600080fd5b5035919050565b60005b838110156119ab578181015183820152602001611993565b838111156119ba576000848401525b50505050565b600081518084526119d8816020860160208601611990565b601f01601f19169290920160200192915050565b80516001600160a01b0316825260006101006020830151816020860152611a15828601826119c0565b9150506040830151604085015260608301518482036060860152611a3982826119c0565b91505060808301518482036080860152611a5382826119c0565b91505060a083015160a085015260c083015160c085015260e083015184820360e0860152611a8182826119c0565b95945050505050565b602081526000611a9d60208301846119ec565b9392505050565b602081526000611a9d60208301846119c0565b634e487b7160e01b600052604160045260246000fd5b600082601f830112611ade57600080fd5b813567ffffffffffffffff80821115611af957611af9611ab7565b604051601f8301601f19908116603f01168101908282118183101715611b2157611b21611ab7565b81604052838152866020858801011115611b3a57600080fd5b836020870160208301376000602085830101528094505050505092915050565b600060208284031215611b6c57600080fd5b813567ffffffffffffffff811115611b8357600080fd5b611b8f84828501611acd565b949350505050565b828152604060208201526000611b8f60408301846119ec565b6001600160a01b038916815261010060208201819052600090611bd58382018b6119c0565b90508860408401528281036060840152611bef81896119c0565b90508281036080840152611c0381886119c0565b90508560a08401528460c084015282810360e0840152611c2381856119c0565b9b9a5050505050505050505050565b600060208284031215611c4457600080fd5b81356001600160a01b0381168114611a9d57600080fd5b60008060008060808587031215611c7157600080fd5b843567ffffffffffffffff80821115611c8957600080fd5b611c9588838901611acd565b95506020870135915080821115611cab57600080fd5b611cb788838901611acd565b94506040870135915080821115611ccd57600080fd5b611cd988838901611acd565b93506060870135915080821115611cef57600080fd5b50611cfc87828801611acd565b91505092959194509250565b600080600060608486031215611d1d57600080fd5b505081359360208301359350604090920135919050565b6000602080830181845280855180835260408601915060408160051b870101925083870160005b82811015611d8957603f19888603018452611d778583516119ec565b94509285019290850190600101611d5b565b5092979650505050505050565b74022b6b83637bcb2b2903737ba1032bc34b9ba399d1605d1b815260609190911b6bffffffffffffffffffffffff1916601582015260290190565b634e487b7160e01b600052603260045260246000fd5b600181811c90821680611dfb57607f821691505b60208210811415611e1c57634e487b7160e01b600052602260045260246000fd5b50919050565b60008251611e34818460208701611990565b9190910192915050565b634e487b7160e01b600052601160045260246000fd5b600082821015611e6657611e66611e3e565b500390565b838152606060208201526000611e8460608301856119c0565b9050826040830152949350505050565b60008219821115611ea757611ea7611e3e565b500190565b838152600060206060818401526000855481600182811c915080831680611ed457607f831692505b858310811415611ef257634e487b7160e01b85526022600452602485fd5b6060880183905260808801818015611f115760018114611f2257611f4d565b60ff19861682528782019650611f4d565b60008c81526020902060005b86811015611f4757815484820152908501908901611f2e565b83019750505b505050505050809250505082604083015294935050505056fea2646970667358221220efc1489ed76f5294a8356b34a05a673f9df444ba978d72c7888981f667cf350a64736f6c63430008090033",
  "linkReferences": {},
  "deployedLinkReferences": {}
}