{
  "_format": "hh-sol-artifact-1",
  "contractName": "Token",
  "sourceName": "contracts/Token.sol",
  "abi": [
    {
      "anonymous": false,
      "inputs": [
        {
          "indexed": false,
          "internalType": "uint256",
          "name": "id",
          "type": "uint256"
        },
        {
          "indexed": false,
          "internalType": "string",
          "name": "userName",
          "type": "string"
        },
        {
          "indexed": false,
          "internalType": "uint256",
          "name": "employeeZanToken",
          "type": "uint256"
        }
      ],
      "name": "RegisterEmployee",
      "type": "event"
    },
    {
      "inputs": [
        {
          "internalType": "string",
          "name": "_name",
          "type": "string"
        },
        {
          "internalType": "string",
          "name": "_companyName",
          "type": "string"
        },
        {
          "internalType": "string",
          "name": "_companyUrl",
          "type": "string"
        }
      ],
      "name": "_createEmployee",
      "outputs": [],
      "stateMutability": "nonpayable",
      "type": "function"
    },
    {
      "inputs": [],
      "name": "_getAllThings",
      "outputs": [
        {
          "components": [
            {
              "internalType": "address",
              "name": "employeeAddress",
              "type": "address"
            },
            {
              "internalType": "string",
              "name": "employeeName",
              "type": "string"
            },
            {
              "internalType": "uint256",
              "name": "employeeZanToken",
              "type": "uint256"
            },
            {
              "internalType": "string",
              "name": "companyName",
              "type": "string"
            },
            {
              "internalType": "string",
              "name": "companyUrl",
              "type": "string"
            },
            {
              "internalType": "uint256",
              "name": "employeeSendToken",
              "type": "uint256"
            },
            {
              "internalType": "uint256",
              "name": "employeeReceiveToken",
              "type": "uint256"
            }
          ],
          "internalType": "struct Token.Employee[]",
          "name": "",
          "type": "tuple[]"
        }
      ],
      "stateMutability": "view",
      "type": "function"
    },
    {
      "inputs": [],
      "name": "_getEmployeeInfo",
      "outputs": [
        {
          "components": [
            {
              "internalType": "address",
              "name": "employeeAddress",
              "type": "address"
            },
            {
              "internalType": "string",
              "name": "employeeName",
              "type": "string"
            },
            {
              "internalType": "uint256",
              "name": "employeeZanToken",
              "type": "uint256"
            },
            {
              "internalType": "string",
              "name": "companyName",
              "type": "string"
            },
            {
              "internalType": "string",
              "name": "companyUrl",
              "type": "string"
            },
            {
              "internalType": "uint256",
              "name": "employeeSendToken",
              "type": "uint256"
            },
            {
              "internalType": "uint256",
              "name": "employeeReceiveToken",
              "type": "uint256"
            }
          ],
          "internalType": "struct Token.Employee",
          "name": "",
          "type": "tuple"
        }
      ],
      "stateMutability": "view",
      "type": "function"
    },
    {
      "inputs": [
        {
          "internalType": "uint256",
          "name": "_to",
          "type": "uint256"
        },
        {
          "internalType": "uint256",
          "name": "_sushi",
          "type": "uint256"
        }
      ],
      "name": "_sendSushi",
      "outputs": [],
      "stateMutability": "nonpayable",
      "type": "function"
    },
    {
      "inputs": [
        {
          "internalType": "address",
          "name": "",
          "type": "address"
        }
      ],
      "name": "employeeAddressId",
      "outputs": [
        {
          "internalType": "uint256",
          "name": "",
          "type": "uint256"
        }
      ],
      "stateMutability": "view",
      "type": "function"
    },
    {
      "inputs": [
        {
          "internalType": "address",
          "name": "",
          "type": "address"
        }
      ],
      "name": "employeeExist",
      "outputs": [
        {
          "internalType": "bool",
          "name": "",
          "type": "bool"
        }
      ],
      "stateMutability": "view",
      "type": "function"
    },
    {
      "inputs": [
        {
          "internalType": "uint256",
          "name": "",
          "type": "uint256"
        }
      ],
      "name": "employeeIdAddress",
      "outputs": [
        {
          "internalType": "address",
          "name": "",
          "type": "address"
        }
      ],
      "stateMutability": "view",
      "type": "function"
    },
    {
      "inputs": [
        {
          "internalType": "uint256",
          "name": "",
          "type": "uint256"
        }
      ],
      "name": "employees",
      "outputs": [
        {
          "internalType": "address",
          "name": "employeeAddress",
          "type": "address"
        },
        {
          "internalType": "string",
          "name": "employeeName",
          "type": "string"
        },
        {
          "internalType": "uint256",
          "name": "employeeZanToken",
          "type": "uint256"
        },
        {
          "internalType": "string",
          "name": "companyName",
          "type": "string"
        },
        {
          "internalType": "string",
          "name": "companyUrl",
          "type": "string"
        },
        {
          "internalType": "uint256",
          "name": "employeeSendToken",
          "type": "uint256"
        },
        {
          "internalType": "uint256",
          "name": "employeeReceiveToken",
          "type": "uint256"
        }
      ],
      "stateMutability": "view",
      "type": "function"
    },
    {
      "inputs": [],
      "name": "name",
      "outputs": [
        {
          "internalType": "string",
          "name": "",
          "type": "string"
        }
      ],
      "stateMutability": "view",
      "type": "function"
    },
    {
      "inputs": [],
      "name": "symbol",
      "outputs": [
        {
          "internalType": "string",
          "name": "",
          "type": "string"
        }
      ],
      "stateMutability": "view",
      "type": "function"
    }
  ],
  "bytecode": "0x60806040526040518060400160405280601281526020017f53757368692043617265657220546f6b656e0000000000000000000000000000815250600090816200004a919062000320565b506040518060400160405280600381526020017f53534800000000000000000000000000000000000000000000000000000000008152506001908162000091919062000320565b503480156200009f57600080fd5b5062000407565b600081519050919050565b7f4e487b7100000000000000000000000000000000000000000000000000000000600052604160045260246000fd5b7f4e487b7100000000000000000000000000000000000000000000000000000000600052602260045260246000fd5b600060028204905060018216806200012857607f821691505b6020821081036200013e576200013d620000e0565b5b50919050565b60008190508160005260206000209050919050565b60006020601f8301049050919050565b600082821b905092915050565b600060088302620001a87fffffffffffffffffffffffffffffffffffffffffffffffffffffffffffffffff8262000169565b620001b4868362000169565b95508019841693508086168417925050509392505050565b6000819050919050565b6000819050919050565b600062000201620001fb620001f584620001cc565b620001d6565b620001cc565b9050919050565b6000819050919050565b6200021d83620001e0565b620002356200022c8262000208565b84845462000176565b825550505050565b600090565b6200024c6200023d565b6200025981848462000212565b505050565b5b8181101562000281576200027560008262000242565b6001810190506200025f565b5050565b601f821115620002d0576200029a8162000144565b620002a58462000159565b81016020851015620002b5578190505b620002cd620002c48562000159565b8301826200025e565b50505b505050565b600082821c905092915050565b6000620002f560001984600802620002d5565b1980831691505092915050565b6000620003108383620002e2565b9150826002028217905092915050565b6200032b82620000a6565b67ffffffffffffffff811115620003475762000346620000b1565b5b6200035382546200010f565b6200036082828562000285565b600060209050601f83116001811462000398576000841562000383578287015190505b6200038f858262000302565b865550620003ff565b601f198416620003a88662000144565b60005b82811015620003d257848901518255600182019150602085019450602081019050620003ab565b86831015620003f25784890151620003ee601f891682620002e2565b8355505b6001600288020188555050505b505050505050565b6121e580620004176000396000f3fe608060405234801561001057600080fd5b506004361061009e5760003560e01c806375c9f4591161006657806375c9f459146101735780637d8adeb01461018f57806395d89b41146101ad578063e49de613146101cb578063e9d32771146101fb5761009e565b806306fdde03146100a35780633429c286146100c15780634739326b146100f15780634c2ba445146101275780635583244814610157575b600080fd5b6100ab610219565b6040516100b891906114ca565b60405180910390f35b6100db60048036038101906100d69190611536565b6102a7565b6040516100e891906115a4565b60405180910390f35b61010b60048036038101906101069190611536565b6102da565b60405161011e97969594939291906115ce565b60405180910390f35b610141600480360381019061013c919061167e565b6104e4565b60405161014e91906116c6565b60405180910390f35b610171600480360381019061016c9190611816565b610504565b005b61018d600480360381019061018891906118bd565b610822565b005b610197610d59565b6040516101a49190611a0f565b60405180910390f35b6101b56110b8565b6040516101c291906114ca565b60405180910390f35b6101e560048036038101906101e0919061167e565b611146565b6040516101f29190611a31565b60405180910390f35b61020361115e565b6040516102109190611bb8565b60405180910390f35b6000805461022690611c09565b80601f016020809104026020016040519081016040528092919081815260200182805461025290611c09565b801561029f5780601f106102745761010080835404028352916020019161029f565b820191906000526020600020905b81548152906001019060200180831161028257829003601f168201915b505050505081565b60056020528060005260406000206000915054906101000a900473ffffffffffffffffffffffffffffffffffffffff1681565b600281815481106102ea57600080fd5b90600052602060002090600702016000915090508060000160009054906101000a900473ffffffffffffffffffffffffffffffffffffffff169080600101805461033390611c09565b80601f016020809104026020016040519081016040528092919081815260200182805461035f90611c09565b80156103ac5780601f10610381576101008083540402835291602001916103ac565b820191906000526020600020905b81548152906001019060200180831161038f57829003601f168201915b5050505050908060020154908060030180546103c790611c09565b80601f01602080910402602001604051908101604052809291908181526020018280546103f390611c09565b80156104405780601f1061041557610100808354040283529160200191610440565b820191906000526020600020905b81548152906001019060200180831161042357829003601f168201915b50505050509080600401805461045590611c09565b80601f016020809104026020016040519081016040528092919081815260200182805461048190611c09565b80156104ce5780601f106104a3576101008083540402835291602001916104ce565b820191906000526020600020905b8154815290600101906020018083116104b157829003601f168201915b5050505050908060050154908060060154905087565b60046020528060005260406000206000915054906101000a900460ff1681565b60001515600460003373ffffffffffffffffffffffffffffffffffffffff1673ffffffffffffffffffffffffffffffffffffffff16815260200190815260200160002060009054906101000a900460ff16151514610597576040517f08c379a000000000000000000000000000000000000000000000000000000000815260040161058e90611c86565b60405180910390fd5b60026040518060e001604052803373ffffffffffffffffffffffffffffffffffffffff1681526020018581526020016103e88152602001848152602001838152602001600081526020016000815250908060018154018082558091505060019003906000526020600020906007020160009091909190915060008201518160000160006101000a81548173ffffffffffffffffffffffffffffffffffffffff021916908373ffffffffffffffffffffffffffffffffffffffff160217905550602082015181600101908161066b9190611e52565b5060408201518160020155606082015181600301908161068b9190611e52565b5060808201518160040190816106a19190611e52565b5060a0820151816005015560c082015181600601555050600060016002805490506106cc9190611f53565b905080600360003373ffffffffffffffffffffffffffffffffffffffff1673ffffffffffffffffffffffffffffffffffffffff16815260200190815260200160002081905550336005600083815260200190815260200160002060006101000a81548173ffffffffffffffffffffffffffffffffffffffff021916908373ffffffffffffffffffffffffffffffffffffffff1602179055506001600460003373ffffffffffffffffffffffffffffffffffffffff1673ffffffffffffffffffffffffffffffffffffffff16815260200190815260200160002060006101000a81548160ff0219169083151502179055507f311ee1f77e30b0d849e267abf3b4ee64b1b9773cd397d97b9241e00fa90f66cc8185600284815481106107f3576107f2611f87565b5b90600052602060002090600702016002015460405161081493929190611fb6565b60405180910390a150505050565b60011515600460003373ffffffffffffffffffffffffffffffffffffffff1673ffffffffffffffffffffffffffffffffffffffff16815260200190815260200160002060009054906101000a900460ff161515146108b5576040517f08c379a00000000000000000000000000000000000000000000000000000000081526004016108ac90611c86565b60405180910390fd5b60011515600460006005600086815260200190815260200160002060009054906101000a900473ffffffffffffffffffffffffffffffffffffffff1673ffffffffffffffffffffffffffffffffffffffff1673ffffffffffffffffffffffffffffffffffffffff16815260200190815260200160002060009054906101000a900460ff1615151461097b576040517f08c379a000000000000000000000000000000000000000000000000000000000815260040161097290611c86565b60405180910390fd5b806002600360003373ffffffffffffffffffffffffffffffffffffffff1673ffffffffffffffffffffffffffffffffffffffff16815260200190815260200160002054815481106109cf576109ce611f87565b5b9060005260206000209060070201600201541015610a22576040517f08c379a0000000000000000000000000000000000000000000000000000000008152600401610a1990611c86565b60405180910390fd5b806002600360003373ffffffffffffffffffffffffffffffffffffffff1673ffffffffffffffffffffffffffffffffffffffff1681526020019081526020016000205481548110610a7657610a75611f87565b5b90600052602060002090600702016002016000828254610a969190611f53565b92505081905550806002600360003373ffffffffffffffffffffffffffffffffffffffff1673ffffffffffffffffffffffffffffffffffffffff1681526020019081526020016000205481548110610af157610af0611f87565b5b90600052602060002090600702016005016000828254610b119190611ff4565b925050819055508060028381548110610b2d57610b2c611f87565b5b90600052602060002090600702016002016000828254610b4d9190611ff4565b925050819055508060028381548110610b6957610b68611f87565b5b90600052602060002090600702016006016000828254610b899190611ff4565b925050819055507f311ee1f77e30b0d849e267abf3b4ee64b1b9773cd397d97b9241e00fa90f66cc600360003373ffffffffffffffffffffffffffffffffffffffff1673ffffffffffffffffffffffffffffffffffffffff168152602001908152602001600020546002600360003373ffffffffffffffffffffffffffffffffffffffff1673ffffffffffffffffffffffffffffffffffffffff1681526020019081526020016000205481548110610c4457610c43611f87565b5b90600052602060002090600702016001016002600360003373ffffffffffffffffffffffffffffffffffffffff1673ffffffffffffffffffffffffffffffffffffffff1681526020019081526020016000205481548110610ca857610ca7611f87565b5b906000526020600020906007020160020154604051610cc9939291906120ac565b60405180910390a17f311ee1f77e30b0d849e267abf3b4ee64b1b9773cd397d97b9241e00fa90f66cc8260028481548110610d0757610d06611f87565b5b906000526020600020906007020160010160028581548110610d2c57610d2b611f87565b5b906000526020600020906007020160020154604051610d4d939291906120ac565b60405180910390a15050565b610d616113e7565b60011515600460003373ffffffffffffffffffffffffffffffffffffffff1673ffffffffffffffffffffffffffffffffffffffff16815260200190815260200160002060009054906101000a900460ff1615151433604051602001610dc69190612189565b60405160208183030381529060405290610e16576040517f08c379a0000000000000000000000000000000000000000000000000000000008152600401610e0d91906114ca565b60405180910390fd5b506000600360003373ffffffffffffffffffffffffffffffffffffffff1673ffffffffffffffffffffffffffffffffffffffff16815260200190815260200160002054905060028181548110610e6f57610e6e611f87565b5b90600052602060002090600702016040518060e00160405290816000820160009054906101000a900473ffffffffffffffffffffffffffffffffffffffff1673ffffffffffffffffffffffffffffffffffffffff1673ffffffffffffffffffffffffffffffffffffffff168152602001600182018054610eee90611c09565b80601f0160208091040260200160405190810160405280929190818152602001828054610f1a90611c09565b8015610f675780601f10610f3c57610100808354040283529160200191610f67565b820191906000526020600020905b815481529060010190602001808311610f4a57829003601f168201915b5050505050815260200160028201548152602001600382018054610f8a90611c09565b80601f0160208091040260200160405190810160405280929190818152602001828054610fb690611c09565b80156110035780601f10610fd857610100808354040283529160200191611003565b820191906000526020600020905b815481529060010190602001808311610fe657829003601f168201915b5050505050815260200160048201805461101c90611c09565b80601f016020809104026020016040519081016040528092919081815260200182805461104890611c09565b80156110955780601f1061106a57610100808354040283529160200191611095565b820191906000526020600020905b81548152906001019060200180831161107857829003601f168201915b505050505081526020016005820154815260200160068201548152505091505090565b600180546110c590611c09565b80601f01602080910402602001604051908101604052809291908181526020018280546110f190611c09565b801561113e5780601f106111135761010080835404028352916020019161113e565b820191906000526020600020905b81548152906001019060200180831161112157829003601f168201915b505050505081565b60036020528060005260406000206000915090505481565b60606002805480602002602001604051908101604052809291908181526020016000905b828210156113de57838290600052602060002090600702016040518060e00160405290816000820160009054906101000a900473ffffffffffffffffffffffffffffffffffffffff1673ffffffffffffffffffffffffffffffffffffffff1673ffffffffffffffffffffffffffffffffffffffff16815260200160018201805461120b90611c09565b80601f016020809104026020016040519081016040528092919081815260200182805461123790611c09565b80156112845780601f1061125957610100808354040283529160200191611284565b820191906000526020600020905b81548152906001019060200180831161126757829003601f168201915b50505050508152602001600282015481526020016003820180546112a790611c09565b80601f01602080910402602001604051908101604052809291908181526020018280546112d390611c09565b80156113205780601f106112f557610100808354040283529160200191611320565b820191906000526020600020905b81548152906001019060200180831161130357829003601f168201915b5050505050815260200160048201805461133990611c09565b80601f016020809104026020016040519081016040528092919081815260200182805461136590611c09565b80156113b25780601f10611387576101008083540402835291602001916113b2565b820191906000526020600020905b81548152906001019060200180831161139557829003601f168201915b505050505081526020016005820154815260200160068201548152505081526020019060010190611182565b50505050905090565b6040518060e00160405280600073ffffffffffffffffffffffffffffffffffffffff1681526020016060815260200160008152602001606081526020016060815260200160008152602001600081525090565b600081519050919050565b600082825260208201905092915050565b60005b83811015611474578082015181840152602081019050611459565b60008484015250505050565b6000601f19601f8301169050919050565b600061149c8261143a565b6114a68185611445565b93506114b6818560208601611456565b6114bf81611480565b840191505092915050565b600060208201905081810360008301526114e48184611491565b905092915050565b6000604051905090565b600080fd5b600080fd5b6000819050919050565b61151381611500565b811461151e57600080fd5b50565b6000813590506115308161150a565b92915050565b60006020828403121561154c5761154b6114f6565b5b600061155a84828501611521565b91505092915050565b600073ffffffffffffffffffffffffffffffffffffffff82169050919050565b600061158e82611563565b9050919050565b61159e81611583565b82525050565b60006020820190506115b96000830184611595565b92915050565b6115c881611500565b82525050565b600060e0820190506115e3600083018a611595565b81810360208301526115f58189611491565b905061160460408301886115bf565b81810360608301526116168187611491565b9050818103608083015261162a8186611491565b905061163960a08301856115bf565b61164660c08301846115bf565b98975050505050505050565b61165b81611583565b811461166657600080fd5b50565b60008135905061167881611652565b92915050565b600060208284031215611694576116936114f6565b5b60006116a284828501611669565b91505092915050565b60008115159050919050565b6116c0816116ab565b82525050565b60006020820190506116db60008301846116b7565b92915050565b600080fd5b600080fd5b7f4e487b7100000000000000000000000000000000000000000000000000000000600052604160045260246000fd5b61172382611480565b810181811067ffffffffffffffff82111715611742576117416116eb565b5b80604052505050565b60006117556114ec565b9050611761828261171a565b919050565b600067ffffffffffffffff821115611781576117806116eb565b5b61178a82611480565b9050602081019050919050565b82818337600083830152505050565b60006117b96117b484611766565b61174b565b9050828152602081018484840111156117d5576117d46116e6565b5b6117e0848285611797565b509392505050565b600082601f8301126117fd576117fc6116e1565b5b813561180d8482602086016117a6565b91505092915050565b60008060006060848603121561182f5761182e6114f6565b5b600084013567ffffffffffffffff81111561184d5761184c6114fb565b5b611859868287016117e8565b935050602084013567ffffffffffffffff81111561187a576118796114fb565b5b611886868287016117e8565b925050604084013567ffffffffffffffff8111156118a7576118a66114fb565b5b6118b3868287016117e8565b9150509250925092565b600080604083850312156118d4576118d36114f6565b5b60006118e285828601611521565b92505060206118f385828601611521565b9150509250929050565b61190681611583565b82525050565b600082825260208201905092915050565b60006119288261143a565b611932818561190c565b9350611942818560208601611456565b61194b81611480565b840191505092915050565b61195f81611500565b82525050565b600060e08301600083015161197d60008601826118fd565b5060208301518482036020860152611995828261191d565b91505060408301516119aa6040860182611956565b50606083015184820360608601526119c2828261191d565b915050608083015184820360808601526119dc828261191d565b91505060a08301516119f160a0860182611956565b5060c0830151611a0460c0860182611956565b508091505092915050565b60006020820190508181036000830152611a298184611965565b905092915050565b6000602082019050611a4660008301846115bf565b92915050565b600081519050919050565b600082825260208201905092915050565b6000819050602082019050919050565b600060e083016000830151611a9060008601826118fd565b5060208301518482036020860152611aa8828261191d565b9150506040830151611abd6040860182611956565b5060608301518482036060860152611ad5828261191d565b91505060808301518482036080860152611aef828261191d565b91505060a0830151611b0460a0860182611956565b5060c0830151611b1760c0860182611956565b508091505092915050565b6000611b2e8383611a78565b905092915050565b6000602082019050919050565b6000611b4e82611a4c565b611b588185611a57565b935083602082028501611b6a85611a68565b8060005b85811015611ba65784840389528151611b878582611b22565b9450611b9283611b36565b925060208a01995050600181019050611b6e565b50829750879550505050505092915050565b60006020820190508181036000830152611bd28184611b43565b905092915050565b7f4e487b7100000000000000000000000000000000000000000000000000000000600052602260045260246000fd5b60006002820490506001821680611c2157607f821691505b602082108103611c3457611c33611bda565b5b50919050565b7f456d706c6f79656520616c726561647920657869737473000000000000000000600082015250565b6000611c70601783611445565b9150611c7b82611c3a565b602082019050919050565b60006020820190508181036000830152611c9f81611c63565b9050919050565b60008190508160005260206000209050919050565b60006020601f8301049050919050565b600082821b905092915050565b600060088302611d087fffffffffffffffffffffffffffffffffffffffffffffffffffffffffffffffff82611ccb565b611d128683611ccb565b95508019841693508086168417925050509392505050565b6000819050919050565b6000611d4f611d4a611d4584611500565b611d2a565b611500565b9050919050565b6000819050919050565b611d6983611d34565b611d7d611d7582611d56565b848454611cd8565b825550505050565b600090565b611d92611d85565b611d9d818484611d60565b505050565b5b81811015611dc157611db6600082611d8a565b600181019050611da3565b5050565b601f821115611e0657611dd781611ca6565b611de084611cbb565b81016020851015611def578190505b611e03611dfb85611cbb565b830182611da2565b50505b505050565b600082821c905092915050565b6000611e2960001984600802611e0b565b1980831691505092915050565b6000611e428383611e18565b9150826002028217905092915050565b611e5b8261143a565b67ffffffffffffffff811115611e7457611e736116eb565b5b611e7e8254611c09565b611e89828285611dc5565b600060209050601f831160018114611ebc5760008415611eaa578287015190505b611eb48582611e36565b865550611f1c565b601f198416611eca86611ca6565b60005b82811015611ef257848901518255600182019150602085019450602081019050611ecd565b86831015611f0f5784890151611f0b601f891682611e18565b8355505b6001600288020188555050505b505050505050565b7f4e487b7100000000000000000000000000000000000000000000000000000000600052601160045260246000fd5b6000611f5e82611500565b9150611f6983611500565b9250828203905081811115611f8157611f80611f24565b5b92915050565b7f4e487b7100000000000000000000000000000000000000000000000000000000600052603260045260246000fd5b6000606082019050611fcb60008301866115bf565b8181036020830152611fdd8185611491565b9050611fec60408301846115bf565b949350505050565b6000611fff82611500565b915061200a83611500565b925082820190508082111561202257612021611f24565b5b92915050565b6000815461203581611c09565b61203f8186611445565b9450600182166000811461205a5760018114612070576120a3565b60ff1983168652811515602002860193506120a3565b61207985611ca6565b60005b8381101561209b5781548189015260018201915060208101905061207c565b808801955050505b50505092915050565b60006060820190506120c160008301866115bf565b81810360208301526120d38185612028565b90506120e260408301846115bf565b949350505050565b600081905092915050565b7f456d706c6f796565206e6f74206578697374733a200000000000000000000000600082015250565b600061212b6015836120ea565b9150612136826120f5565b601582019050919050565b60008160601b9050919050565b600061215982612141565b9050919050565b600061216b8261214e565b9050919050565b61218361217e82611583565b612160565b82525050565b60006121948261211e565b91506121a08284612172565b6014820191508190509291505056fea264697066735822122059e922b201b5cbacbcff492227a5a9703458916ec76c52c44d783c6c6c5da16f64736f6c63430008110033",
  "linkReferences": {},
  "deployedLinkReferences": {}
}